:1000000001308A0036280000831A0A28A400030E53
:10001000A5000F288312A400030EA500A5140A084A
:10002000AB008A018313A40E0408A6002008A700D1
:100030002108A8002208A9002308AA0083128B1E09
:1000400023280B197228260884002708A0002808F6
:10005000A1002908A2002A08A3002B088A00250E67
:1000600083008312240EA51883160900FF2383162C
:10007000900000308A0056290A108A100A1182075F
:100080000A3414340A3496340A3414340A34963454
:100090000A3414340A3496340A108A100A1182077A
:1000A0000A3415340A3415340A3464340A341534E5
:1000B0000A3415340A3464340A3415340A341534D5
:1000C0000A3464340A108A100A1182070A34FA3496
:1000D0000A34FA340A34FA340A34FA340A34FA3470
:1000E0000A34FA34B10A3108053C031D7A28B101FB
:1000F0000130B2000B118A112328DF3083168500EE
:100100000108C0390138810083128B16C0308B047E
:100110006A29831605168312051A91280130B30047
:100120009228B3013308A100080083160515831235
:10013000051D9D280130B3009E28B3013308A1009E
:100140000800831685148312851CA9280130B3008A
:10015000AA28B3013308A1000800B308031DB22880
:100160008512B3288516831685128312080089200C
:10017000210BC4289520210BC428A120A108031D10
:10018000C4280130AC00F028831605148312051C26
:10019000CC280130B300CD28B3013308A100A10859
:1001A000031DD828A120210BD8280330AC00F0284B
:1001B0008920210BEF289520A108031DEF28831625
:1001C00085158312851DE7280130B300E828B301A7
:1001D0003308A100210BEF280230AC00F028AC015D
:1001E0002C082D020319F728B001AF01AE012C082D
:1001F00003190429013A03190729033A031920298D
:10020000013A031939295229B301AD205329AF0806
:10021000031D1E2930080B3C031C1D29B00A0130A8
:1002200030023C20A100AF002E0B1829AE011A2984
:100230000130AE002E08B300AD201F29AF035329B3
:10024000AF08031D37293008113C031C3629B00ABA
:10025000013030024C20A100AF002E0B3129AE013D
:1002600033290130AE002E08B300AD203829AF038A
:100270005329AF08031D502930080B3C031C4F299C
:10028000B00A013030026220A100AF002E0B4A29D3
:10029000AE014C290130AE002E08B300AD2051292B
:1002A000AF03532953292C08AD006F2984011F3057
:1002B0008305AC01AD01AE01AF01B001B101B201E6
:1002C0001F1383161F109F101F119F1107308312D9
:1002D00099007D28B20803196A29B201B7286A2952
:0202E0006300B9
:02400E00943FDD
:00000001FF
;PIC12F675
;CRC=96AB  CREATED="16-Jan-15 20:54"
