:10000000000000308A004F28831A0A28A400030E3B
:10001000A5000F288312A400030EA500A5140A084A
:10002000AB008A018313A40E0408A6002008A700D1
:100030002108A8002208A9002308AA0083128B1E09
:1000400023280B193E280B1E27288B1849288B1DA7
:100050002B280B184C28260884002708A000280805
:10006000A1002908A2002A08A3002B088A00250E57
:1000700083008312240EA51883160900AC0A2C08ED
:10008000053C031D4628AC010130AD000B118A115F
:100090002B288B108A112B280B108A112B288401F6
:1000A0001F308305AC01AD011F1383161F109F1075
:1000B0001F119F1107308312990083168512831236
:1000C0008516AD08031D6628AD01612861286728E3
:02400E00923FDF
:00000001FF
;PIC12F675
;CRC=F683  CREATED="15-Jan-15 00:04"
