:10000000000000308A001828223084008313000882
:10001000031917280630F800F701F70B0D28F80B25
:100020000C287B30F700F70B1328800B0A280800F8
:10003000840183131F30830583161F149F141F151B
:100040009F1107309C001F109F141F159F1505104E
:10005000831205100430A100FA30A2000420A10B85
:100060002C2883160510831205140430A100FA30E1
:0E007000A2000420A10B3728831627283E2863
:02400E003A373F
:00000001FF
;PIC16F877A
;CRC=FDC6  CREATED="15-Jan-15 00:11"
